:100000000C9466050C94090D0C94E20C0C948E056E
:100010000C948E050C948E050C948E050C948E0514
:100020000C948E050C948E050C948E050C948E0504
:100030000C948E050C948E050C948E050C948E05F4
:100040000C94980C0C948E050C94560D0C94300D59
:100050000C948E050C948E050C948E050C948E05D4
:100060000C948E050C948E0500407A10F35A00A073
:10007000724E18090010A5D4E80000E87648170071
:1000800000E40B54020000CA9A3B000000E1F505B1
:10009000000080969800000040420F000000A086FB
:1000A00001000000102700000000E803000000002D
:1000B0006400000000000A000000000001000000D1
:1000C00000002C76D888DC674F0823DFC1DFAE59EB
:1000D000E1B1B796E5E3E453C63AE651997696E87E
:1000E000E6C28426EB898C9B62ED407C6FFCEFBC02
:1000F0009C9F40F2BAA56FA5F490055A2AF75C932D
:100100006B6CF9676DC11BFCE0E40D47FEF520E662
:10011000B500D0ED902E0300943577050080841E45
:10012000080000204E0A000000C80C333333330FA0
:10013000986E12831141EF8D2114893BE65516CF3D
:10014000FEE6DB18D1844B381BF77C1D901DA4BB49
:10015000E424203284725E228100C9F124ECA1E5FE
:100160003D276364696E6F70737578585B00436FE9
:100170006D6D616E643A20002700436F6C756D6E83
:100180007320736570617261746F72202D63743AAD
:100190002027002700446563696D616C20736570DA
:1001A000617261746F72202D64733A202700205BA6
:1001B000302D4E6F3B20312D596573206572726F63
:1001C000723B20322D2059657320706572696F640F
:1001D00069635D004C697374696E67206F66206D9A
:1001E00065617375726564206672657175656E63AD
:1001F0007920616E642064757479206379636C651D
:100200002076616C756573202D6C3A2000303020AB
:10021000626175640053657269616C206C696E651A
:10022000207370656564202D623A2000206D730094
:100230004D696E206572726F72207369676E616CB2
:10024000696E67206475726174696F6E202D7465C4
:100250003A20004D6178206E756D626572206F6680
:10026000206572726F7273202D653A2000207065D0
:10027000726D696C6C65004D6178206475747920CD
:100280006379636C65202D733A2000207065726D70
:10029000696C6C65004D696E2064757479206379B2
:1002A000636C65202D733A2000207573004D6178D2
:1002B00020706572696F64202D703A20002075737C
:1002C000004D696E20706572696F64202D703A2050
:1002D00000496E76657274206F7574707574202D88
:1002E000693A2000207573005468726573686F6CFA
:1002F000642048494748202D743A20002075730037
:100300005468726573686F6C64204C4F57202D746D
:100310003A200056657273696F6E3A20000D0A002C
:10032000466C697070696E672050494E31322062A8
:1003300061736564206F6E206475747920637963DE
:100340006C6520616E642050494E36206261736591
:1003500064206F6E206572726F722E000D0A0D0A96
:100360005468652041726475696E6F2069732072EC
:100370006561647920746F206576616C7561746560
:10038000207468652072656374616E67756C617254
:10039000207369676E616C206F6E2050494E203269
:1003A0002E2049742077696C6C206576616C7561CC
:1003B00074652069747320706572696F6420616E62
:1003C000642064757479206379636C652E004669D6
:1003D0007273742072756E202121212100000000AB
:1003E000002300260029002D6820666F72206865B2
:1003F0006C702E0D0A000D0A556E6B6E6F776E20B5
:10040000636F6D6D616E64206F722077726F6E67BF
:1004100020666F726D61743A20000D0A000D0A4C5F
:10042000696D697473207375636365737366756C46
:100430006C7920757064617465643A000D0A4C69CA
:100440006D697473207375636365737366756C6C23
:100450007920757064617465643A00205665727322
:10046000696F6E3A20002056657273696F6E3A208C
:100470000041726475696E6F204E414E4F20666F69
:1004800072206D6561737572696E672050574D20DB
:100490007369676E616C2064757479206379636C2D
:1004A000652E004578616D706C65206F6620612057
:1004B0006D6561737572656D656E7420636F6D6DCA
:1004C000616E643A203A4D4541533A5749443F20C2
:1004D0003A4D4541533A5045523F202020616E73BA
:1004E00077657220652E672E3A20302C30303633F7
:1004F00031323B20302C30323030373600535953B4
:1005000054656D3A4552526F723A434F554E743F9F
:100510002072657475726E7320746865206E756DD7
:10052000626572206F66206572726F7273207369E4
:100530006E6365207374617274206F72202A434C5D
:10054000532E003A4D4541537572653A50455269F4
:100550006F643F2072657475726E732074686520D5
:100560007369676E616C20706572696F6420766173
:100570006C75652E003A4D4541537572653A574981
:100580004474683F2072657475726E732074686578
:10059000206C656E6774682076616C7565206F6687
:1005A000207468652048494748207369676E616C0C
:1005B0002E003A46455443683F2072657475726E4A
:1005C00073207468652064757479206379636C6541
:1005D0002076616C756573206F66207468652050A5
:1005E000574D207369676E616C20696E207065726B
:1005F000206D696C6C652E002A434C5320636C653A
:100600006172206572726F7220636F756E746572AD
:100610002E002A525354207365747320616C6C2031
:10062000706172616D657465727320746F206661AC
:1006300063746F72792073657474696E67732E00CA
:100640002A49444E3F2072657475726E7320494486
:100650004E002D6373205B636861725D20636F6C75
:10066000756D6E7320736570617261746F722E00A8
:100670002D6473205B636861725D20646563696DDE
:10068000616C20736570617261746F722E002D6CE5
:10069000205B6E756D6265725D206C69737473208A
:1006A00063757272656E742076616C75657320284F
:1006B000302D4E6F3B20312D596573206572726F5E
:1006C000723B20322D2059657320706572696F640A
:1006D0006963292E002D62205B6E756D6265725D07
:1006E0002073657269616C20627561742072617437
:1006F00065203936202D3E20393630302C203134DB
:1007000034202D3E2031343430302C203139322009
:100710002D3E2031393230302C20323838202D3ED9
:100720002032383830302C20333834202D3E2033DE
:10073000383430302C20353736202D3E20353736B2
:1007400030302C2031313532202D3E2031313532C0
:1007500030302E002D7465205B6E756D6265725DA4
:10076000206D696E696D756D206572726F72207390
:1007700069676E616C696E67206475726174696F18
:100780006E202831302D363530303029206D732ED3
:10079000002D65205B6E756D6265725D20746F2043
:1007A00073657420746865206E756D626572206F64
:1007B0006620636F6E736563757469766520657214
:1007C000726F7273206265666F726520746865204F
:1007D0006572726F722070696E2028302D32353547
:1007E000292070696E3620666C6970732E002D7337
:1007F000205B6E756D626572315D205B6E756D623A
:100800006572325D20746F20736574206C696D6948
:10081000747320666F7220636F72726563742064F4
:10082000757479206379636C6520696E20706572D8
:100830006D696C6C652028312D343939292E002DD5
:1008400070205B6E756D626572315D205B6E756DDB
:10085000626572325D20746F20736574206C696DFF
:1008600069747320666F7220636F7272656374209F
:10087000706572696F6420696E207573202831304D
:10088000302D3635303030292E002D69205B6E75C5
:100890006D6265725D20302F31202D206E6F2F79B3
:1008A000657320696E76657274206F7574707574E7
:1008B0002E002D74205B6E756D626572315D205B5C
:1008C0006E756D626572325D2073657474696E67F2
:1008D000206C696D69747320666F722070756C731B
:1008E0006520737769746368696E6720696E207527
:1008F0007320283530302D32303030302920706967
:100900006E31322E0053484F5720646973706C610A
:100910007973207468652063757272656E742076D1
:10092000616C75657320E2808BE2808B6F6620615D
:100930006C6C20706172616D65746572732E00203D
:10094000250020487A207C204475747920437963FF
:100950006C653A20004672657175656E63793A2060
:1009600000207573005369676E616C207065726951
:100970006F64206973206F75747369646520746F88
:100980006C6572616E63652E20200020250053691E
:10099000676E616C2064757479206379636C65207F
:1009A0006973206F75747369646520746F6C657208
:1009B000616E63652E2020000000000024002700E7
:1009C0002A0000000000250028002B000404040475
:1009D00004040404020202020202030303030303E9
:1009E00001020408102040800102040810200102C6
:1009F00004081020000000080002010000030407A2
:100A000000000000000000005374617465207761ED
:100A100073206E6F74206368616E6765642E0029B1
:100A200020616E6420746865206669727374207634
:100A3000616C7565206D757374206265206C6573DB
:100A400073207468616E206F7220657175616C200F
:100A5000746F20746865207365636F6E642E00295F
:100A60002E002D000D0A4572726F723A2056616C8D
:100A7000756573206D75737420626520696E2074CE
:100A800068652072616E67652028000D0A4C696DEB
:100A9000697473207375636365737366756C6C79C1
:100AA00020757064617465643A000D0A4C696D6963
:100AB0007473207375636365737366756C6C7920EA
:100AC000757064617465643A0000880D11241FBE5E
:100AD000CFEFD8E0DEBFCDBF11E0A0E0B1E0E2E7AC
:100AE000FBE302C005900D92A63EB107D9F723E0C3
:100AF000A6EEB1E001C01D92AB37B207E1F715E0F9
:100B0000C6E6D5E004C02197FE010E94731AC536DF
:100B1000D107C9F70E94D20D0C94B71D0C940000A8
:100B2000CF92DF92EF92FF926B017C01E0919702EE
:100B3000F091980282E08083C11481EED806E1042E
:100B4000F104A1F060E079E08DE390E0A701960167
:100B50000E94371A2150310941095109569547958C
:100B600037952795211580E13807A8F0E091970285
:100B7000F0919802108260E874E88EE190E0A7019D
:100B800096010E94371A21503109410951095695A1
:100B9000479537952795E0919302F0919402308321
:100BA000E0919502F0919602208310929F02E091CD
:100BB0009B02F0919C0286E08083E0919902F09183
:100BC0009A02808180618083E0919902F0919A027B
:100BD000808188608083E0919902F0919A028081FF
:100BE00080688083E0919902F0919A0280818F7DE4
:100BF0008083FF90EF90DF90CF900895833081F055
:100C000028F4813099F08230A9F008958730A9F056
:100C10008830C9F08430B1F4809180008F7D03C0AA
:100C2000809180008F7780938000089584B58F77BE
:100C300084BD089584B58F7DFBCF8091B0008F7700
:100C40008093B00008958091B0008F7DF9CF1F93FD
:100C5000CF93DF93282F30E0F901EC50F64F8491C9
:100C6000F901E052F64FD491F901E453F64FC491E3
:100C7000CC23A9F0162F81110E94FE05EC2FF0E085
:100C8000EE0FFF1FEE53F64FA591B4918FB7F89476
:100C9000EC91111108C0D095DE23DC938FBFDF915A
:100CA000CF911F910895DE2BF8CFCF93DF9390E083
:100CB000FC01E052F64F24918453964FFC0184913D
:100CC0008823D1F090E0880F991FFC01E854F64F7B
:100CD000A591B491FC01EE53F64FC591D4916111E9
:100CE0000EC09FB7F8948C91E22FE0958E238C93E1
:100CF0002881E223E8839FBFDF91CF9108958FB7CA
:100D0000F894EC91E22BEC938FBFF6CF3FB7F894B9
:100D10008091690290916A02A0916B02B0916C027D
:100D200026B5A89B05C02F3F19F00196A11DB11D46
:100D30003FBFBA2FA92F982F8827BC01CD01620F82
:100D4000711D811D911D42E0660F771F881F991F3D
:100D50004A95D1F708958F929F92AF92BF92CF920A
:100D6000DF92EF92FF924B015C010E9486066B01BD
:100D70007C010E9486066C197D098E099F09683ED8
:100D8000734081059105A8F321E0821A9108A1081A
:100D9000B10888EEC80E83E0D81EE11CF11C811456
:100DA0009104A104B10429F7FF90EF90DF90CF9058
:100DB000BF90AF909F908F9008952FB7F894609157
:100DC00065027091660280916702909168022FBF60
:100DD00008950895AF92BF92CF92DF92EF92FF9263
:100DE0000F931F93CF93DF936C017B018B01040F53
:100DF000151FEB015E01AE18BF08C017D10759F0EF
:100E00006991D601ED91FC910190F081E02DC60130
:100E10000995892B79F7C501DF91CF911F910F912A
:100E2000FF90EF90DF90CF90BF90AF900895FC01BE
:100E3000538D448D252F30E0842F90E0821B930B3F
:100E4000541710F0CF96089501970895FC01918DE5
:100E5000828D981761F0A28DAE0FBF2FB11D5D96E8
:100E60008C91928D9F5F9F73928F90E008958FEF8A
:100E70009FEF0895FC01918D828D981731F0828D3E
:100E8000E80FF11D858D90E008958FEF9FEF089595
:100E9000FC01918D228D892F90E0805C9F4F821BF9
:100EA00091098F739927089587E892E00E94480777
:100EB00021E0892B09F420E0822F089580E090E062
:100EC000892B29F00E94540781110C940000089589
:100ED000FC01A48DA80FB92FB11DA35ABF4F2C91AF
:100EE000848D90E001968F739927848FA689B789A6
:100EF0002C93A089B1898C91837080648C93938D9D
:100F0000848D981306C00288F389E02D80818F7D3F
:100F100080830895EF92FF920F931F93CF93DF93F7
:100F2000EC0181E0888F9B8D8C8D98131AC0E88925
:100F3000F989808185FF15C09FB7F894EE89FF89F4
:100F40006083E889F98980818370806480839FBF92
:100F500081E090E0DF91CF911F910F91FF90EF9092
:100F60000895F62E0B8D10E00F5F1F4F0F731127A2
:100F7000E02E8C8D8E110CC00FB607FCFACFE889DD
:100F8000F989808185FFF5CFCE010E946807F1CFF6
:100F9000EB8DEC0FFD2FF11DE35AFF4FF0829FB751
:100FA000F8940B8FEA89FB8980818062CFCF0F9301
:100FB0001F93CF93DF938C01D0E0C0E0F801EC0FDA
:100FC000FD1F6491662341F087E892E00E948A0742
:100FD000892B11F02196F2CFCE01DF91CF911F9195
:100FE0000F910895682F87E892E00C948A07CF93B9
:100FF000DF93EC01888D8823B9F0AA89BB89E88941
:10100000F9898C9185FD03C0808186FD0DC00FB6E6
:1010100007FCF7CF8C9185FFF2CF808185FFEDCF64
:10102000CE010E946807E9CFDF91CF9108953F92EA
:101030004F925F926F927F928F929F92AF92BF92E8
:10104000CF92DF92EF92FF920F931F93CF93DF9394
:101050000E948606C090EE01D090EF01E090F00172
:10106000F090F1019B01AC012C193D094E095F097B
:1010700069017A016093EE017093EF018093F001B2
:101080009093F1014A9BB2C0409174025091750255
:1010900070E060E04C155D056E057F0530F4209131
:1010A0007602222389F02C9810C040917202509150
:1010B000730270E060E0C416D506E606F70628F471
:1010C00020917602222379F32C9AC092EA01D092E1
:1010D000EB01E092EC01F092ED018091E60190913C
:1010E000E701A091E801B091E901892B8A2B8B2BB4
:1010F00009F46AC08091EA019091EB01A091EC01A2
:10110000B091ED01892B8A2B8B2B09F45DC00091E6
:10111000E6011091E7012091E8013091E90180900A
:10112000EA019090EB01A090EC01B090ED014090AD
:10113000E6015090E7016090E8017090E901C090ED
:10114000E601D090E701E090E801F090E90180919C
:10115000570290E001966AE070E00E94231A382E50
:1011600080915602831581F1800E911EA21EB31E3E
:10117000E0915702CAE0CE9FF0011124EE50FE4FDD
:1011800080829182A282B382D0915702A8EEB3E00E
:10119000A30192010E94681AA50194010E94371AC6
:1011A000CD9FF0011124EE50FE4F35832483E09152
:1011B0005702CE9FF0011124EE50FE4FC682D78217
:1011C000E086F18630925702DF91CF911F910F9107
:1011D000FF90EF90DF90CF90BF90AF909F908F9057
:1011E0007F906F905F904F903F900895C092E6017E
:1011F000D092E701E092E801F092E901E5CFFF9299
:101200000F931F93CF93DF930DE612E0D0E0C0E081
:10121000F801F1908F01CE010E949A17F81621F083
:101220006F2DCE010E94A2172196CA31D10581F7F8
:101230008DE692E0DF91CF911F910F91FF9008957D
:1012400085E0E6E1F1E0ADE6B2E001900D928A952D
:10125000E1F7EDE6F2E080E49FE19683858380EE9E
:101260009EE290878783118680E596E49387828744
:1012700080EF95E59587848788E191E09787868759
:101280008AE491E0918B808B82E0828B80E293E014
:10129000948B838B80E690E0968B858B178A8CE20B
:1012A000808F8BE3818F0C94FF08FC01019000205C
:1012B000E9F73197AF01481B590BBC0187E892E071
:1012C0000C94EA06CF93DF930E94D707EC018BE1E1
:1012D00091E00E9455098C0F9D1FDF91CF910895D9
:1012E000CF93DF93EC018EE691E00E94D707CE0109
:1012F000DF91CF910C9462098F929F92AF92BF922F
:101300000F931F93CF93DF93CDB7DEB7A1970FB69F
:10131000F894DEBF0FBECDBF19A2423008F44AE0F8
:101320008E010F5D1F4F842E912CB12CA12CA50195
:1013300094010E94371AE62FB901CA01EA30F4F489
:10134000E05DD801EE938D01232B242B252B79F71B
:1013500090E080E0109719F0CD010E945509A19608
:101360000FB6F894DEBF0FBECDBFDF91CF911F91B6
:101370000F91BF90AF909F908F900895E95CE1CF5F
:10138000CF93DF93D0E0C0E0009719F00E94550999
:10139000EC018BE191E00E9455098C0F9D1FDF91BC
:1013A000CF910895BC0190E080E04AE00C947C0964
:1013B0008F929F92AF92BF92CF92DF92EF92FF9265
:1013C000CF93DF936B017C01AC019B010E941E1A3D
:1013D000882371F08EE191E0DF91CF91FF90EF9043
:1013E000DF90CF90BF90AF909F908F900C94550955
:1013F00046015701E894B7F82FEF3FEF4FE75FE75B
:10140000C501B4010E941E1A81110DC02FEF3FEFDC
:101410004FE75FE7C501B4010E94541818161CF489
:1014200082E291E0D9CF2FEF3FEF4FE75FE4C701B2
:10143000B6010E94AC1918161CF486E291E0CCCFDC
:101440002FEF3FEF4FE75FECC701B6010E94541842
:1014500087FDF3CF20E030E0A901C701B6010E946B
:101460005418D0E0C0E087FF08C08DE20E94F20768
:10147000EC01F7FAF094F7F8F0942AE037ED43EA3C
:101480005BE3C701B6010E94E8174B015C010E94B3
:10149000CB186B017C010E94FA189B01AC01C501BD
:1014A000B4010E94E7174B015C014AE0C701B60195
:1014B0000E947C09C80FD91F8EE20E94F207C80F54
:1014C000D91F20E030E040E251E4C501B4010E94A0
:1014D000B1194B015C010E94CB186B01CB010E943A
:1014E000D209C80FD91FB60190E080E00E94FA1817
:1014F0009B01AC01C501B4010E94E71720E030E078
:1015000040E251E40E94B1190E94CB18CB010E9425
:10151000D2098C0F9D1FDF91CF91FF90EF90DF904C
:10152000CF90BF90AF909F908F900895CF93DF930F
:1015300083E193E00E94D7078DE692E00E94C00904
:1015400080E093E00E94D707CDE6D2E08D819E81B6
:101550000E94D2098CEF92E00E94620988EE92E02C
:101560000E94D7078F8198850E94D20984EE92E06D
:101570000E94620981ED92E00E94D707698570E0C0
:1015800090E080E04AE00E947C098BE191E00E94BB
:10159000550981EC92E00E94D7078A859B850E94BD
:1015A000D2098DEB92E00E9462098DEA92E00E94DE
:1015B000D7078C859D850E94D20989EA92E00E9416
:1015C000620985E992E00E94D7078E859F850E9477
:1015D000D2098BE892E00E94620987E792E00E94BC
:1015E000D707888999890E94D2098DE692E00E94E6
:1015F000620983E592E00E94D7076A8970E090E073
:1016000080E04AE00E947C098BE191E00E9455094C
:1016100080E392E00E94D7078B899C890E94D209BF
:101620008CE292E00E94620985E192E00E94D70775
:101630008D899E890E94D2098DE092E00E94620904
:1016400084ED91E00E94D7076F8970E090E080E020
:101650004AE00E947C098EEA91E00E94620985E9D5
:1016600091E00E94D707888D0E94F20783E991E0FC
:101670000E9462098AE791E00E94D707898D0E9443
:10168000F20788E791E0DF91CF910C9462092F92E5
:101690003F924F925F926F927F928F929F92AF9202
:1016A000BF92CF92DF92EF92FF920F931F93CF934F
:1016B000DF93CDB7DEB72C970FB6F894DEBF0FBE21
:1016C000CDBF3C015B014A01690118018FEF9FEF1B
:1016D000DC018D839E83AF83B88789839A83AB8334
:1016E000BC83CE010596E114F104C1F09E012F5F89
:1016F0003F4F3F932F939F938F938AE291E09F9365
:101700008F937F926F920E94A31A0FB6F894DEBF58
:101710000FBECDBF0297ECF480E064C09F938F931F
:1017200086E391E09F938F937F926F920E94A31A1A
:101730000F900F900F900F900F900F9018161906A2
:101740005CF78D819E81AF81B88589839A83AB8355
:10175000BC836EE371E0C3010E948C1A4D815E81EF
:101760006F817885892B09F056C040365105610597
:10177000710519F14039510561057105F1F0403CE1
:10178000510561057105C9F0403211E0510761054D
:10179000710599F0403821E052076105710569F043
:1017A000403432E053076105710539F0403884E078
:1017B00058076105710509F050C02114310419F072
:1017C000D1014D935C930E94FF086AE070E080E0D5
:1017D00090E00E94AB068AEA9AE00E9462090E94A9
:1017E000960A81E02C960FB6F894DEBF0FBECDBFEF
:1017F000DF91CF911F910F91FF90EF90DF90CF90ED
:10180000BF90AF909F908F907F906F905F904F9020
:101810003F902F900895850130E020E009871A87D6
:101820002B873C874017510762077307B4F02401E8
:10183000712C612C441655066606770674F0898172
:101840009A81AB81BC8180179107A207B3072CF066
:10185000481659066A067B0624F584E69AE00E943B
:10186000D707C5010E94D20982E69AE00E94D707F5
:10187000C4010E94D2098FE59AE0EF2811F08FE1B0
:101880009AE00E94620988E09AE00E94620944CFCF
:1018900084179507A607B70704F32114310439F418
:1018A0000CC0E114F104A1F72114310449F0F10155
:1018B00051834083E114F10419F0F701918380838F
:1018C000C114D10411F0D6014C930E94FF088BE89B
:1018D0009AE083CFFF920F931F93CF93DF93CDB7FF
:1018E000DEB72D970FB6F894DEBF0FBECDBFF42E36
:1018F0008E010F5F1F4F26E040E00E9445156EE20B
:1019000070E0C8010E94811A009711F0FC01F0827A
:10191000CE0101960E9455092D960FB6F894DEBFB0
:101920000FBECDBFDF91CF911F910F91FF90089512
:101930001F920F920FB60F9211242F933F938F9304
:101940009F93AF93BF938091650290916602A0919F
:101950006702B09168023091640223E0230F2D37B3
:1019600058F50196A11DB11D209364028093650274
:1019700090936602A0936702B09368028091690217
:1019800090916A02A0916B02B0916C020196A11D28
:10199000B11D8093690290936A02A0936B02B09389
:1019A0006C02BF91AF919F918F913F912F910F90BA
:1019B0000FBE0F901F90189526E8230F0296A11DC9
:1019C000B11DD2CF1F920F920FB60F9211242F93F9
:1019D0003F934F935F936F937F938F939F93AF93B7
:1019E000BF93EF93FF93E0910201F09103010995FA
:1019F000FF91EF91BF91AF919F918F917F916F91E7
:101A00005F914F913F912F910F900FBE0F901F90BC
:101A100018951F920F920FB60F9211242F933F9398
:101A20004F935F936F937F938F939F93AF93BF93E6
:101A3000EF93FF93E0910001F09101010995FF916F
:101A4000EF91BF91AF919F918F917F916F915F9136
:101A50004F913F912F910F900FBE0F901F901895AF
:101A60001F920F920FB60F9211242F933F934F9313
:101A70005F936F937F938F939F93AF93BF93EF93F6
:101A8000FF9387E892E00E946807FF91EF91BF9172
:101A9000AF919F918F917F916F915F914F913F9106
:101AA0002F910F900FBE0F901F9018951F920F92BD
:101AB0000FB60F9211242F938F939F93EF93FF9361
:101AC000E0919702F09198028081E0919D02F0915F
:101AD0009E0282FD1BC090818091A0028F5F8F7358
:101AE0002091A102821741F0E091A002F0E0E957B5
:101AF000FD4F958F8093A002FF91EF919F918F9161
:101B00002F910F900FBE0F901F9018958081F4CFEA
:101B1000E7E8F2E01382128288EE93E0A0E0B0E002
:101B200084839583A683B78388E091E09183808343
:101B300085EC90E09587848784EC90E09787868792
:101B400080EC90E0918B808B81EC90E0938B828B8A
:101B500082EC90E0958B848B86EC90E0978B868B63
:101B6000118E128E138E148E10923B0310927903F5
:101B70001092780310927A03E4E2F3E01082158267
:101B80001682178210868CE390E0928781871386F5
:101B900014868FEF858716861786108A118A128A17
:101BA000138A0895789484B5826084BD84B5816079
:101BB00084BD85B5826085BD85B5816085BD809118
:101BC0006E00816080936E00109281008091810090
:101BD0008260809381008091810081608093810088
:101BE000809180008160809380008091B10084604A
:101BF0008093B1008091B00081608093B0008091AB
:101C00007A00846080937A0080917A008260809369
:101C10007A0080917A00816080937A0080917A00C6
:101C2000806880937A001092C10060E082E00E9498
:101C3000550661E08CE00E94550661E086E00E9456
:101C4000550687E198E0909301018093000180910F
:101C500069008C7F816080936900E89A0DE612E04C
:101C6000D0E0C0E0CE010E949A17F80181938F0165
:101C70002196CA31D105B1F766E171E08DE692E0B7
:101C80000E948C1A892B61F060E875E280E090E098
:101C90000E9490058EEC93E00E9462090E94200948
:101CA0002091820230918302A4E6B0E00E94591A8A
:101CB0000E9490058CE593E00E94620980E293E027
:101CC0000E9462090E94960A8DE193E00E94D70764
:101CD00087EE93E00E9470090E94DD066093250361
:101CE0007093260380932703909328031092320366
:101CF0001092330310923403109235037AE0A72E2A
:101D0000B12CE6EE2E2EE9E03E2ECFEF68EE862EC9
:101D100063E0962ED4E052E0D52E90915702809148
:101D20005602981709F44CC0A0915602EAE0EA9FC7
:101D3000D0011124AE50BE4F8D919D910D90BC915C
:101D4000A02D8093580290935902A0935A02B09309
:101D50005B02A0915602EA9FD0011124AE50BE4F03
:101D600014968D919C919093610280936002809172
:101D70005602E89FF0011124EE50FE4F86819781B4
:101D8000A085B18580935C0290935D02A0935E0272
:101D9000B0935F028091560290E00196B5010E94D7
:101DA000231A809356020E94DD06609325037093E8
:101DB0002603809327039093280381E080932403D4
:101DC00080912403882309F457C110922403809141
:101DD000600290916102853FF1E09F0708F0FCC529
:101DE00090936302809362028091620290916302F9
:101DF00020917B0230917C028217930740F0209162
:101E00007D0230917E022817390708F0EAC58091DB
:101E10002F0381110AC00E94DD066093290370938D
:101E20002A0380932B0390932C0380912F038F5FC1
:101E300080932F0340913203509133036091340318
:101E4000709135034F5F5F4F6F4F7F4F4093320369
:101E500050933303609334037093350390917F0262
:101E6000981720F580913103981701F18091840231
:101E70008130C1F48EE899E00E94D707609160023A
:101E80007091610290E080E00E94FA1820E030E05A
:101E900040E251E40E9459180E94D8098BE899E069
:101EA0000E94620961E086E00E9427064091580284
:101EB0005091590260915A0270915B0280917702B1
:101EC00090917802B0E0A0E0481759076A077B07B5
:101ED00060F08091790290917A02B0E0A0E08417DE
:101EE0009507A607B70708F07FC5809130038111D9
:101EF0000AC00E94DD066093290370932A03809331
:101F00002B0390932C03809130038F5F80933003D9
:101F10004091320350913303609134037091350343
:101F20004F5F5F4F6F4F7F4F4093320350933303A8
:101F3000609334037093350390917F029817F8F4FF
:101F4000809131039817D9F080918402813099F4FF
:101F500085E699E00E94D707609158027091590276
:101F600080915A0290915B024AE00E947C0981E6CE
:101F700099E00E94620961E086E00E942706809154
:101F80002F0381113BC080913003811137C0EAEFEC
:101F9000F9E08491F1011491E2EDF9E0049100235C
:101FA00069F181110E94FE05E02FF0E0EE0FFF1FA6
:101FB000E352FC4FA591B4918C911823F9F00E9443
:101FC000DD060091290310912A0320912B03309103
:101FD0002C03AB01BC01401B510B620B730B8091B6
:101FE000800290918102B0E0A0E084179507A607D7
:101FF000B70720F460E086E00E9427068091840203
:102000008230D1F5609158027091590280915A0244
:1020100090915B020E94FA189B01AC0160E074E2AF
:1020200084E799E40E9459182B013C0185E599E069
:102030000E94D707C301B2010E94D80982E499E047
:102040000E94D707609160027091610290E080E089
:102050000E94FA1820E030E040E251E40E94591852
:102060000E94D8098FE399E00E94620968EC70E051
:1020700080E090E00E94AB060E94DD0600912503FF
:10208000109126032091270330912803AB01BC0156
:10209000401B510B620B730B80912D0390912E030B
:1020A000B0E0A0E084179507A607B70730F51092B7
:1020B00058021092590210925A0210925B0210922A
:1020C00061021092600210925C0210925D02109206
:1020D0005E0210925F0281E0809324030E94DD067D
:1020E000609325037093260380932703909328031E
:1020F000609176028CE00E94270687E892E00E94B9
:1021000048071816190644F587E892E00E9426074A
:102110008093380300917803109179038A3019F085
:102120008D3009F064C40115110539F3015011090E
:10213000F801E85CFC4F8481803221F4109379032C
:1021400000937803E0917803F0917903E85CFC4F09
:10215000148281E080937A0380917A03882309F4C2
:1021600087C48CE393E090933A03809339031092F1
:102170003B0333E0C32E80913B038F3F09F472C4CD
:102180000091390310913A0361E471E0C8010E94A3
:102190008C1A892B79F06BE671E0C8010E948C1AC9
:1021A000892B41F064E471E0C8010E948C1A892BEC
:1021B00009F04EC085E099E00E94700982EB98E03A
:1021C0000E9470098AE898E00E9470098FE398E005
:1021D0000E9470098EEE97E00E94700981E997E0F5
:1021E0000E94700984E597E00E94700985ED96E0F1
:1021F0000E9470098EE896E00E94700980E796E0E0
:102200000E94700982E596E00E94700980E496E0E1
:102210000E94700982E196E00E94700988EF95E0C3
:102220000E94700982EB95E00E94700985E795E0B5
:102230000E94700983E495E00E9470098DEF94E09C
:102240000E94700983EA94E00E946209C0933B03F4
:1022500044E050E069E471E08091390390913A03E1
:102260000E94951A892B21F40E94960AC0933B0381
:1022700045E050E06EE471E08091390390913A03BB
:102280000E94951A892B71F481E794E00E94D70788
:1022900086E694E00E94D7078DE692E00E94C0098E
:1022A000C0933B0344E050E064E571E08091390362
:1022B00090913A030E94951A892BD1F482E196E01D
:1022C0000E94D7078BE594E00E94D7078DE692E045
:1022D0000E94C0090E9420090E94960A10923203AF
:1022E000109233031092340310923503C0933B03D2
:1022F0000091390310913A0344E050E069E571E040
:10230000C8010E94951A892B51F410923203109241
:1023100033031092340310923503C0933B0347E01C
:1023200050E06EE571E0C8010E94951A892B39F5DD
:1023300080913B038250823038F4809186020E9463
:10234000F20780E20E94F2078091600290916102A0
:102350000E94D209E0913903F0913A03DF010D9018
:102360000020E9F71197AE1BBF0B199708F462C361
:102370003896F0933A03E0933903D0923B0346E05A
:1023800050E066E671E08091390390913A030E9433
:10239000951A892B39F580913B038250823038F4AD
:1023A000809186020E94F20780E20E94F2078091EB
:1023B0006002909161020E94D209E0913903F0918C
:1023C0003A03DF010D900020E9F71197AE1BBF0B18
:1023D000189708F432C33796F0933A03E093390321
:1023E000D0923B034FE050E06DE671E080913903FD
:1023F00090913A030E94951A892BA9F580913B038D
:102400008250823038F4809186020E94F20780E286
:102410000E94F20760915C0270915D0280915E0201
:1024200090915F020E94FA1820E034E244E759E4F8
:102430000E945918409185020E946A0CE09139036C
:10244000F0913A03DF010D900020E9F71197AE1BE0
:10245000BF0B519708F4F4C27096F0933A03E093DF
:102460003903D0923B034AE050E06DE771E0809180
:10247000390390913A030E94951A892BA9F580910E
:102480003B038250823038F4809186020E94F2072A
:1024900080E20E94F20760915C0270915D0280917F
:1024A0005E0290915F020E94FA1820E034E244E755
:1024B00059E40E945918409185020E946A0CE091EB
:1024C0003903F0913A03DF010D900020E9F71197ED
:1024D000AE1BBF0B1C9708F4B6C23B96F0933A03B1
:1024E000E0933903D0923B0340E150E068E871E0AB
:1024F0008091390390913A030E94951A892BA9F58E
:1025000080913B038250823038F4809186020E9491
:10251000F20780E20E94F20760915802709159021E
:1025200080915A0290915B020E94FA1820E034E2F6
:1025300044E759E40E945918409185020E946A0CB0
:10254000E0913903F0913A03DF010D900020E9F7A3
:102550001197AE1BBF0B529708F478C27196F09397
:102560003A03E0933903D0923B034AE050E069E933
:1025700071E08091390390913A030E94951A892B5A
:10258000A9F580913B038250823038F48091860215
:102590000E94F20780E20E94F20760915802709157
:1025A000590280915A0290915B020E94FA1820E031
:1025B00034E244E759E40E945918409185020E9490
:1025C0006A0CE0913903F0913A03DF010D9000208D
:1025D000E9F71197AE1BBF0B1C9708F43AC23B9664
:1025E000F0933A03E0933903D0923B0343E150E088
:1025F00064EA71E08091390390913A030E94951A40
:10260000892B61F580913B038250823038F48091B0
:1026100086020E94F20780E20E94F2076091320374
:102620007091330380913403909135034AE00E9406
:102630007C09E0913903F0913A03DF010D9000200D
:10264000E9F71197AE1BBF0B559708F405C27496B6
:10265000F0933A03E0933903D0923B034EE050E00D
:1026600068EB71E08091390390913A030E94951ACA
:10267000892B61F580913B038250823038F4809140
:1026800086020E94F20780E20E94F2076091320304
:102690007091330380913403909135034AE00E9496
:1026A0007C09E0913903F0913A03DF010D9000209D
:1026B000E9F71197AE1BBF0B509708F4D0C13F96B6
:1026C000F0933A03E0933903D0923B0360903903CF
:1026D00070903A0343E050E067EC71E0C3010E9460
:1026E000951A892BA9F4F12CE12C00E812E030E0D6
:1026F00020E048EE5DEF64E670E0C3010E94470B06
:10270000811104C084E597E00E947009C0933B03E7
:102710006090390370903A0343E050E06BEC71E055
:10272000C3010E94951A892BB9F424E7E22E22E016
:10273000F22E02E712E030E020E040E25EE464EFD7
:1027400071E0C3010E94470B811104C082EB98E045
:102750000E947009C0933B036090390370903A0364
:1027600042E050E06FEC71E0C3010E94951A892BA2
:10277000A9F4F12CE12C10E000E026E732E041E082
:1027800050E070E060E0C3010E94470B811104C07B
:102790008AE898E00E947009C0933B036090390377
:1027A00070903A0342E050E062ED71E0C3010E9494
:1027B000951A892BA9F4F12CE12C10E000E024E813
:1027C00032E042E050E070E060E0C3010E94470B5D
:1027D000811104C08EE896E00E947009C0933B030B
:1027E0006090390370903A0342E050E065ED71E08B
:1027F000C3010E94951A892BB9F499E7E92E92E05A
:10280000F92E07E712E030E020E048EE5DEF64E6E5
:1028100070E0C3010E94470B811104C08FE398E070
:102820000E947009C0933B036090390370903A0393
:1028300042E050E068ED71E0C3010E94951A892BD7
:10284000B9F48DE7E82E82E0F82E0BE712E030E0D5
:1028500020E043EF51E061E070E0C3010E94470BCC
:10286000811104C08EEE97E00E947009C0933B0373
:102870006090390370903A0342E050E06BED71E0F4
:10288000C3010E94951A892BA9F4F12CE12C10E0C8
:1028900000E02FE732E04FEF50E070E060E0C3016E
:1028A0000E94470B811104C081E997E00E947009E2
:1028B000C0933B036090390370903A0342E050E0CC
:1028C0006EE371E0C3010E94951A892BA9F4F12CE3
:1028D000E12C02E812E030E020E040E854E060E65D
:1028E00070E0C3010E94470B811104C085ED96E0A2
:1028F0000E947009C0933B030091390310913A0381
:1029000043E050E06EED71E0C8010E94951A892BFA
:10291000B9F4F80101900020E9F7CF01069780177C
:10292000910771F4F8018481809385020E94FF0869
:102930008CE394E00E9462090E94960AC0933B03D4
:102940000091390310913A0343E050E062EE71E0E8
:10295000C8010E94951A892BB9F4F8010190002052
:10296000E9F7CF0106978017910771F4F801848188
:10297000809386020E94FF088DE194E00E94620924
:102980000E94960AC0933B0380913B03843031F44C
:102990008AE194E00E94D707C0933B0380913B03F8
:1029A000882311F0833081F486EF93E00E94D707EB
:1029B0008091390390913A030E94C00987EE93E019
:1029C0000E947009C0933B0380913B03823009F061
:1029D000D2CBC0923B03CFCB9401281B390BC9014A
:1029E000FFC910922F0362CA10923003C8CA0B337A
:1029F000110508F082CB0115110519F4803209F494
:102A00007CCB9801285C3C4F3901F90193819032CD
:102A100019F4803209F471CB082E000C990B0E9436
:102A2000791A0F5F1F4F1093790300937803F30116
:102A3000848363CBD0933B03A2CCD0933B03D2CC13
:102A4000D0933B0310CDD0933B034ECDD0933B03AB
:102A50008CCDD0933B03CACDD0933B03FFCDD09315
:102A60003B0334CE109279031092780310927A03CC
:102A700080E090E0892B09F450C90E945407882314
:102A800009F448C90E94000041C9EF920F931F93B7
:102A9000CF93DF93E80134E047FD34E1042E000CCE
:102AA000550B57FF03C0519541955109E32E022F55
:102AB000242FAE010E946315CE01DF91CF911F91AB
:102AC0000F91EF900895A9E0B0E0E9E6F5E10C94EC
:102AD000B6176A01F22EB02E102FFBE3AF2EA01610
:102AE00008F41BE31F5F012F27E0AE014F5F5F4F2C
:102AF0000E94C216BC018981982F9970913009F407
:102B00003FC09BE2E1FC04C09E2D9170E0FC3AC006
:102B10005E2D5071E82FE87083FF46C084E091116C
:102B200001C083E0EF2DE81B8F1508F0E0E0D6012F
:102B30008E2F20E2552351F1992329F0D6019C9341
:102B4000C60101966C0196012D5F3F4FE2FE24C045
:102B50008EE4D6018C9391E411969C931197129672
:102B60008C93D9018E2F90E281111BC0E20FF32FBD
:102B7000F11D10828EEF9FEF2996ECE00C94D21796
:102B80009DE2C6CF90E2C4CF2D9381508111FCCF3E
:102B9000CE0ED11CE0E0D0CF8EE6D6018C9391E62C
:102BA000DBCF9D938150E0CF482F447082FF3DC022
:102BB00084E0911101C083E08F1510F4EF2DE81B24
:102BC000D6018E2F20E2552309F1992329F0D60151
:102BD0009C93C60101966C0196012D5F3F4FE2FE6A
:102BE0001BC089E4D6018C938EE411968C931197C7
:102BF00086E412968C93D9018E2F90E2882309F4F3
:102C0000B5CF9D938150FACF2D9381508111FCCF88
:102C1000CE0ED11CE0E0D9CF89E6D6018C938EE6AA
:102C200011968C93119786E6E4CF9B0177FF02C043
:102C300030E020E0A1E0B0E0911102C0B0E0A0E0FF
:102C4000F9013196AE0FBF1F8B2C912CBB2009F4DC
:102C500061C05401EFEFAE1ABE0AAA0DBB1DFA16F1
:102C60001B0619F014F04F2D4A1B511188C0E3FCCC
:102C700059C07601A42FB0E2A1114FC0C40ED11CDF
:102C8000992309F45BC040E0D6011196F6019083C8
:102C90006D01552309F448C0012F060F9A81582F62
:102CA000507184FF03C0913309F4015010160CF0E9
:102CB00047C0093008F008E0EEE2FE2E5B01A01AE2
:102CC000B10885019194819491082F3F320729F42E
:102CD000D601FC92F60131966F016217730794F1E9
:102CE000021713077CF5DB01A21BB30BAA24A394E4
:102CF000B12CAC0EBD1EAA0DBB1D11968C9121509E
:102D00003109D601119628153905F4F0F6018083B2
:102D10006D01DBCFB12CA12CA0CFF701B1937F01C6
:102D2000A150AACF9111B0CFD601942F50E302C089
:102D30005D9391509111FCCFC40ED11C40E0ACCFFB
:102D400001E0BACF80E3DBCF6217730731F496332B
:102D500088F4953311F4552369F0F6018083FD0161
:102D6000842F90E2811108C0A40FB11D1C9290E045
:102D700080E002CF81E3F1CF91938150F3CF9111A5
:102D800083CF8ACF283008F027E03327DA01990F64
:102D9000311D87FD916000966105710539F432603F
:102DA0002E5F3D9330E32A95E1F708959F3F30F081
:102DB00080387105610509F03C5F3C5F3D939130BF
:102DC00008F08068911DDF93CF931F930F93FF92BC
:102DD000EF92192F987F9695E92F96959695E90F82
:102DE000FF27EE53FF4F99273327EE24FF24A70137
:102DF000E70105900894079428F4360FE71EF81EA3
:102E0000491F511D660F771F881F991F0694A1F750
:102E10000590079428F4E70EF81E491F561FC11DA0
:102E2000770F881F991F661F0694A1F705900794D6
:102E300028F4F80E491F561FC71FD11D880F991F70
:102E4000661F771F0694A1F70590079420F4490F99
:102E5000561FC71FD81F990F661F771F881F06941C
:102E6000A9F784911095177041F0D695C79557959D
:102E70004795F794E7941A95C1F7E8E6F0E068946F
:102E80001590159135916591959105907FE2739517
:102E9000E118F10A430B560BC90BD009C0F7E10C3E
:102EA000F11E431F561FC91FD01D7EF4703311F44D
:102EB0008A95E6CFE894015030F0080F0AF4002715
:102EC000021708F4202F2395022F7A3328F079E394
:102ED0007D932A95E9F710C07D932A9589F606948B
:102EE00097956795379517951794E118F10A430B55
:102EF000560BC90BD00998F023957E9173957A33C0
:102F000008F070E37C932013B8F77E9170617D9395
:102F100030F0839571E37D9370E32A95E1F71124F6
:102F2000EF90FF900F911F91CF91DF91992787FD2F
:102F300090950895F999FECF92BD81BDF89A992791
:102F400080B50895262FF999FECF1FBA92BD81BD95
:102F500020BD0FB6F894FA9AF99A0FBE019608951B
:102F60002F923F924F925F926F927F928F929F9299
:102F7000AF92BF92CF92DF92EF92FF920F931F9387
:102F8000CF93DF93CDB7DEB7CA1BDB0B0FB6F89438
:102F9000DEBF0FBECDBF09942A88398848885F8478
:102FA0006E847D848C849B84AA84B984C884DF80E9
:102FB000EE80FD800C811B81AA81B981CE0FD11DCD
:102FC0000FB6F894DEBF0FBECDBFED010895505887
:102FD000BB27AA270E94FF170C9472190E9464193C
:102FE00038F00E946B1920F039F49F3F19F426F451
:102FF0000C9461190EF4E095E7FB0C945B19E92F32
:103000000E94831958F3BA1762077307840795075C
:1030100020F079F4A6F50C94A5190EF4E0950B2E8A
:10302000BA2FA02D0B01B90190010C01CA01A0011A
:103030001124FF27591B99F0593F50F4503E68F175
:103040001A16F040A22F232F342F4427585FF3CFB6
:10305000469537952795A795F0405395C9F77EF487
:103060001F16BA0B620B730B840BBAF09150A1F0D0
:10307000FF0FBB1F661F771F881FC2F70EC0BA0F56
:10308000621F731F841F48F4879577956795B795DE
:10309000F7959E3F08F0B0CF9395880F08F09927D9
:1030A000EE0F9795879508950E94371908F481E0EF
:1030B00008950E946D180C9472190E946B1958F0B3
:1030C0000E94641940F029F45F3F29F00C945B19C9
:1030D00051110C94A6190C9461190E94831968F37C
:1030E0009923B1F3552391F3951B550BBB27AA27C1
:1030F00062177307840738F09F5F5F4F220F331FFB
:10310000441FAA1FA9F335D00E2E3AF0E0E832D0C2
:1031100091505040E695001CCAF72BD0FE2F29D0C5
:10312000660F771F881FBB1F261737074807AB0797
:10313000B0E809F0BB0B802DBF01FF2793585F4F0C
:103140003AF09E3F510578F00C945B190C94A61947
:103150005F3FE4F3983ED4F3869577956795B795EE
:10316000F7959F5FC9F7880F911D9695879597F9F9
:103170000895E1E0660F771F881FBB1F6217730772
:103180008407BA0720F0621B730B840BBA0BEE1F87
:1031900088F7E09508950E948B1988F09F5798F062
:1031A000B92F9927B751B0F0E1F0660F771F881F4C
:1031B000991F1AF0BA95C9F714C0B13091F00E9466
:1031C000A519B1E008950C94A519672F782F8827C9
:1031D000B85F39F0B93FCCF3869577956795B3958D
:1031E000D9F73EF490958095709561957F4F8F4FFC
:1031F0009F4F0895E89409C097FB3EF49095809501
:10320000709561957F4F8F4F9F4F9923A9F0F92FAC
:1032100096E9BB279395F695879577956795B7952A
:10322000F111F8CFFAF4BB0F11F460FF1BC06F5F10
:103230007F4F8F4F9F4F16C0882311F096E911C022
:10324000772321F09EE8872F762F05C0662371F043
:1032500096E8862F70E060E02AF09A95660F771F57
:10326000881FDAF7880F9695879597F90895990F33
:103270000008550FAA0BE0E8FEEF16161706E80740
:10328000F907C0F012161306E407F50798F0621B61
:10329000730B840B950B39F40A2661F0232B242B36
:1032A000252B21F408950A2609F4A140A6958FEF55
:1032B000811D811D089597F99F6780E870E060E0A7
:1032C00008959FEF80EC089500240A9416161706BF
:1032D00018060906089500240A9412161306140607
:1032E00005060895092E0394000C11F4882352F06A
:1032F000BB0F40F4BF2B11F460FF04C06F5F7F4F22
:103300008F4F9F4F089557FD9058440F551F59F008
:103310005F3F71F04795880F97FB991F61F09F3FC2
:1033200079F087950895121613061406551FF2CFEB
:103330004695F1DF08C0161617061806991FF1CF3B
:1033400086957105610508940895E894BB27662762
:103350007727CB0197F908950E94371908F48FEF6A
:1033600008950E94C4190C9472190E94641938F0CF
:103370000E946B1920F0952311F00C945B190C94AA
:10338000611911240C94A6190E94831970F3959F5A
:10339000C1F3950F50E0551F629FF001729FBB274C
:1033A000F00DB11D639FAA27F00DB11DAA1F649FE8
:1033B0006627B00DA11D661F829F2227B00DA11D9B
:1033C000621F739FB00DA11D621F839FA00D611D21
:1033D000221F749F3327A00D611D231F849F600D42
:1033E000211D822F762F6A2F11249F5750409AF06B
:1033F000F1F088234AF0EE0FFF1FBB1F661F771FF7
:10340000881F91505040A9F79E3F510580F00C94C1
:103410005B190C94A6195F3FE4F3983ED4F38695AC
:1034200077956795B795F795E7959F5FC1F7FE2B61
:10343000880F911D9695879597F908950E943719E1
:10344000880B990B0895AA1BBB1B51E107C0AA1F4B
:10345000BB1FA617B70710F0A61BB70B881F991F35
:103460005A95A9F780959095BC01CD010895A1E2E8
:103470001A2EAA1BBB1BFD010DC0AA1FBB1FEE1FEE
:10348000FF1FA217B307E407F50720F0A21BB30B39
:10349000E40BF50B661F771F881F991F1A9469F7B5
:1034A00060957095809590959B01AC01BD01CF0111
:1034B0000895A29FB001B39FC001A39F700D811D0D
:1034C0001124911DB29F700D811D1124911D08952D
:1034D0000E94591AA59F900DB49F900DA49F800D36
:1034E000911D11240895EE0FFF1F0590F491E02D1A
:1034F00009949111089581548A5108F4805E855A87
:103500000895FC018191861721F08823D9F7992726
:1035100008953197CF010895FB01DC018D91019051
:1035200080190110D9F3990B0895FB01DC0141507A
:10353000504030F08D910190801919F40020B9F7B6
:10354000881B990B0895AEE0B0E0E9EAFAE10C942B
:10355000C01785E08C838B899C899A838983AE010F
:10356000495E5F4F6D897E89CE0101960E94471C9E
:103570002E96E2E00C94DC1720FD09C0FC0123FD2F
:1035800005C022FF02C07383628351834083089584
:1035900044FD17C046FD1DC0DB01FC01AA0FBB1F87
:1035A000EE1FFF1F1094D1F76A0F7B1F8E1F9F1F06
:1035B000660F771F881F991F620F711D811D911D56
:1035C000089533E0660F771F881F991F3150D1F798
:1035D000F3CF34E0F7CF0F931F93CF93DF938C019A
:1035E000C8010E94601DEC0197FD08C00E944C1D9F
:1035F000892BB1F7B801CE010E949C1DCE01DF914D
:10360000CF911F910F9108958F929F92AF92BF9289
:10361000EF92FF920F931F93CF93DF938C01D62FDE
:103620007A01B22E0E94601D9C0133272B32310596
:1036300029F02D323105A9F46894B7F8D15061F41E
:1036400080E0DF91CF911F910F91FF90EF90BF909D
:10365000AF909F908F900895C8010E94601D97FDC4
:10366000EFCFCB2DCD7F2B2D2073F9F48033E9F4F0
:10367000AA24AA94AD0E89F0C8010E94601D97FD8E
:103680000CC0282F2F7D283561F4C264D25029F058
:10369000C8010E94601D97FF08C0812C912C540125
:1036A0001BC0B6FE2BC0C260DA2D812C912C5401B8
:1036B00020ED280F283028F1C4FD09C02A3008F178
:1036C000C6FF05C02F7D3FEE320F3630C8F0B8017F
:1036D0000E949C1DC1FFB4CFC7FF08C0B094A09446
:1036E00090948094811C911CA11CB11C2C2FB501BD
:1036F000A401C7010E94BC1A81E0A3CFC261D4CF4C
:1037000027504C2FC501B4010E94C81A4B015C011F
:10371000C260D15009F3C8010E94601D97FFC8CF55
:10372000D9CFA0E2B0E0E7E9FBE10C94B5175C016A
:10373000962E7A01CE0101966C0180E2F60111927B
:103740008A95E9F7F501B381890130E020E0712C19
:10375000812CA0E041E050E0F801B3FD8591B3FF7A
:103760008191982F8F01811107C010E000E0C801FE
:10377000A096EDE00C94D1178E3519F42115310582
:1037800041F1A21713064CF48D3549F18D3229F41D
:10379000811006C0882483941DC0882009F464C069
:1037A000E92FE695E695E695EC0DFD2DF11D892FA7
:1037B0008770BA0101C0660F8A95EAF78081682B8D
:1037C0006083791651F0971510F49F5FE9CF9150FF
:1037D000E7CFA1E02F5F3F4FBFCF812CFBCF8820E9
:1037E00019F08E8180628E83AA2359F0F6019E0122
:1037F0002F5D3F4F8081809580833196E217F307DC
:10380000C9F788248394C5010E94601D97FD16C0E6
:10381000E82FE695E695E695EC0DFD2DF11D20814E
:1038200030E0AC014770552702C0359527954A9581
:10383000E2F720FD06C0B5010E949C1D882069F0BA
:1038400094CFE114F10429F0F7018083C7010196B8
:103850007C019A94812C9110D6CFE114F10409F4E3
:1038600086CFF701108283CFE82FE695E695E6959F
:10387000EC0DFD2DF11D982F9770BA0101C0660F58
:103880009A95EAF79081692B6083782EA3CFB0E0F8
:10389000A0E0EDE4FCE10C94B3176C01EB015A01DC
:1038A000FC0117821682512CF601E380FE01E3FC35
:1038B0008591E3FE8191182FEF018823E9F090E0D4
:1038C0000E944C1D892B21F0C6010E94EB1AECCFFF
:1038D000153241F4FE01E3FC1591E3FE1191EF0175
:1038E000153269F4C6010E94601D97FD8EC018173D
:1038F000D9F2B6010E949C1D852D90E08AC000E09F
:103900001A3231F4E3FC1591E3FE1191EF0101E06D
:10391000F12C20ED210F2A3048F101FF37C0FF20A4
:1039200059F31836B1F11C3609F43DC0112321F3C7
:10393000612F70E082E691E00E94551D892BE1F233
:10394000912C812C00FD06C0F50180809180C5017D
:1039500002965C011E3679F5F6014681578170E0CA
:1039600060E0202FC4010E94BC1A9ECF02606F2D20
:1039700070E090E080E040E20E94C81AF62EFE015E
:10398000E3FC1591E3FE1191EF01C3CFFF24FA94FC
:10399000C8CFFE01E3FC1591E3FE1191EF0118364B
:1039A00009F0C4CF08600460FE01E3FC1591E3FE5A
:1039B0001191EF01BBCF1336C1F401FD02C0FF240A
:1039C000F394C6010E94601D97FD1FC081149104ED
:1039D00029F0F4018083C40101964C01FA94F1109E
:1039E000F0CF00FD61CF53945FCF1B35B9F49E013A
:1039F000A4016F2DC6010E94911BEC01892B89F750
:103A0000F6018381807309F477CF8FEF9FEF511018
:103A100073CFCDB7DEB7EFE00C94CF17C6010E948D
:103A2000EB1A97FDF2CF1F36A9F130F4143641F0AE
:103A3000193639F0006405C01337B9F01537D1F7DE
:103A40000062202FA4016F2DC6010E94041B81116A
:103A5000C8CFD6CF8114910429F0F4016082C4014B
:103A600001964C01FA94FF2071F0C6010E94601D7E
:103A70003C0197FD08C00E944C1D892B59F3B601EB
:103A8000C3010E949C1D8114910409F4AACFF40182
:103A90001082A7CF0061D5CF91110C94B41D803254
:103AA00019F089508550C8F70895FC010590061655
:103AB00021F00020D9F7C00108953197CF01089572
:103AC000CF93DF93EC012B8120FF1AC026FF0CC09F
:103AD0002F7B2B838E819F8101969F838E838A818A
:103AE00090E0DF91CF91089522FF18C0E881F9811D
:103AF0008081082E000C990B009729F420622B83FB
:103B00008FEF9FEFEECF3196F983E8832E813F81CF
:103B10002F5F3F4F3F832E839927E3CFEA85FB85B5
:103B2000099597FFF3CF2B81019621F080E2822B3C
:103B30008B83E6CF80E1FBCFFB01238120FF11C007
:103B400026FD0FC08F3F980771F082832F7D206480
:103B50002383268137812150310937832683992792
:103B600008958FEF9FEF0895992788270895F89477
:023B7000FFCF85
:103B7200E906E906000000008A07EA061707F707C8
:103B8200480726073A0756312E34000D0A006E61A7
:103B92006E00696E66006F766600252A7320256CBA
:103BA2006420256C6400252A7320256C64002D6234
:103BB200002D680048454C500073686F77002A69F1
:103BC200646E3F002A727374002A636C73003A6653
:103BD200657463683F003A666574633F003A6D65D9
:103BE20061737572653A77696474683F003A6D650E
:103BF20061733A7769643F003A6D65617375726506
:103C02003A706572696F643F003A6D6561733A702C
:103C120065723F0073797374656D3A6572726F7283
:103C22003A636F756E743F00737973743A6572729A
:103C32003A636F756E3F002D7465002D7420002D60
:103C420069002D6C002D70002D73002D65002D6410
:063C520073002D637300F6
:00000001FF
